{
  "address": "0xF637860c509e804C640C13c720d4150D5b3AC457",
  "abi": [
    {
      "inputs": [],
      "stateMutability": "nonpayable",
      "type": "constructor"
    },
    {
      "anonymous": false,
      "inputs": [
        {
          "indexed": true,
          "internalType": "address",
          "name": "owner",
          "type": "address"
        },
        {
          "indexed": true,
          "internalType": "address",
          "name": "spender",
          "type": "address"
        },
        {
          "indexed": false,
          "internalType": "uint256",
          "name": "value",
          "type": "uint256"
        }
      ],
      "name": "Approval",
      "type": "event"
    },
    {
      "anonymous": false,
      "inputs": [
        {
          "indexed": false,
          "internalType": "uint256",
          "name": "oldBuyTax",
          "type": "uint256"
        },
        {
          "indexed": false,
          "internalType": "uint256",
          "name": "oldBuyMarketing",
          "type": "uint256"
        },
        {
          "indexed": false,
          "internalType": "uint256",
          "name": "BuyTax",
          "type": "uint256"
        },
        {
          "indexed": false,
          "internalType": "uint256",
          "name": "BuyMarketing",
          "type": "uint256"
        }
      ],
      "name": "BuyFeeUpdated",
      "type": "event"
    },
    {
      "anonymous": false,
      "inputs": [
        {
          "indexed": true,
          "internalType": "address",
          "name": "previousOwner",
          "type": "address"
        },
        {
          "indexed": true,
          "internalType": "address",
          "name": "newOwner",
          "type": "address"
        }
      ],
      "name": "OwnershipTransferred",
      "type": "event"
    },
    {
      "anonymous": false,
      "inputs": [
        {
          "indexed": false,
          "internalType": "uint256",
          "name": "oldSellTax",
          "type": "uint256"
        },
        {
          "indexed": false,
          "internalType": "uint256",
          "name": "oldSellMarketing",
          "type": "uint256"
        },
        {
          "indexed": false,
          "internalType": "uint256",
          "name": "SellTax",
          "type": "uint256"
        },
        {
          "indexed": false,
          "internalType": "uint256",
          "name": "SellMarketing",
          "type": "uint256"
        }
      ],
      "name": "SellFeeUpdated",
      "type": "event"
    },
    {
      "anonymous": false,
      "inputs": [
        {
          "indexed": true,
          "internalType": "address",
          "name": "from",
          "type": "address"
        },
        {
          "indexed": true,
          "internalType": "address",
          "name": "to",
          "type": "address"
        },
        {
          "indexed": false,
          "internalType": "uint256",
          "name": "value",
          "type": "uint256"
        }
      ],
      "name": "Transfer",
      "type": "event"
    },
    {
      "inputs": [],
      "name": "_marketingAddress",
      "outputs": [
        {
          "internalType": "address payable",
          "name": "",
          "type": "address"
        }
      ],
      "stateMutability": "view",
      "type": "function"
    },
    {
      "inputs": [
        {
          "internalType": "address",
          "name": "owner",
          "type": "address"
        },
        {
          "internalType": "address",
          "name": "spender",
          "type": "address"
        }
      ],
      "name": "allowance",
      "outputs": [
        {
          "internalType": "uint256",
          "name": "",
          "type": "uint256"
        }
      ],
      "stateMutability": "view",
      "type": "function"
    },
    {
      "inputs": [
        {
          "internalType": "address",
          "name": "spender",
          "type": "address"
        },
        {
          "internalType": "uint256",
          "name": "amount",
          "type": "uint256"
        }
      ],
      "name": "approve",
      "outputs": [
        {
          "internalType": "bool",
          "name": "",
          "type": "bool"
        }
      ],
      "stateMutability": "nonpayable",
      "type": "function"
    },
    {
      "inputs": [
        {
          "internalType": "address",
          "name": "account",
          "type": "address"
        }
      ],
      "name": "balanceOf",
      "outputs": [
        {
          "internalType": "uint256",
          "name": "",
          "type": "uint256"
        }
      ],
      "stateMutability": "view",
      "type": "function"
    },
    {
      "inputs": [],
      "name": "buyFee",
      "outputs": [
        {
          "internalType": "uint16",
          "name": "tax",
          "type": "uint16"
        },
        {
          "internalType": "uint16",
          "name": "marketing",
          "type": "uint16"
        }
      ],
      "stateMutability": "view",
      "type": "function"
    },
    {
      "inputs": [],
      "name": "decimals",
      "outputs": [
        {
          "internalType": "uint8",
          "name": "",
          "type": "uint8"
        }
      ],
      "stateMutability": "view",
      "type": "function"
    },
    {
      "inputs": [
        {
          "internalType": "address",
          "name": "spender",
          "type": "address"
        },
        {
          "internalType": "uint256",
          "name": "subtractedValue",
          "type": "uint256"
        }
      ],
      "name": "decreaseAllowance",
      "outputs": [
        {
          "internalType": "bool",
          "name": "",
          "type": "bool"
        }
      ],
      "stateMutability": "nonpayable",
      "type": "function"
    },
    {
      "inputs": [
        {
          "internalType": "address",
          "name": "account",
          "type": "address"
        }
      ],
      "name": "excludeFromFee",
      "outputs": [],
      "stateMutability": "nonpayable",
      "type": "function"
    },
    {
      "inputs": [
        {
          "internalType": "address",
          "name": "account",
          "type": "address"
        }
      ],
      "name": "includeInFee",
      "outputs": [],
      "stateMutability": "nonpayable",
      "type": "function"
    },
    {
      "inputs": [
        {
          "internalType": "address",
          "name": "spender",
          "type": "address"
        },
        {
          "internalType": "uint256",
          "name": "addedValue",
          "type": "uint256"
        }
      ],
      "name": "increaseAllowance",
      "outputs": [
        {
          "internalType": "bool",
          "name": "",
          "type": "bool"
        }
      ],
      "stateMutability": "nonpayable",
      "type": "function"
    },
    {
      "inputs": [
        {
          "internalType": "address",
          "name": "account",
          "type": "address"
        }
      ],
      "name": "isExcludedFromFee",
      "outputs": [
        {
          "internalType": "bool",
          "name": "",
          "type": "bool"
        }
      ],
      "stateMutability": "view",
      "type": "function"
    },
    {
      "inputs": [],
      "name": "name",
      "outputs": [
        {
          "internalType": "string",
          "name": "",
          "type": "string"
        }
      ],
      "stateMutability": "view",
      "type": "function"
    },
    {
      "inputs": [],
      "name": "owner",
      "outputs": [
        {
          "internalType": "address",
          "name": "",
          "type": "address"
        }
      ],
      "stateMutability": "view",
      "type": "function"
    },
    {
      "inputs": [],
      "name": "renounceOwnership",
      "outputs": [],
      "stateMutability": "nonpayable",
      "type": "function"
    },
    {
      "inputs": [],
      "name": "sellFee",
      "outputs": [
        {
          "internalType": "uint16",
          "name": "tax",
          "type": "uint16"
        },
        {
          "internalType": "uint16",
          "name": "marketing",
          "type": "uint16"
        }
      ],
      "stateMutability": "view",
      "type": "function"
    },
    {
      "inputs": [
        {
          "internalType": "uint16",
          "name": "tax",
          "type": "uint16"
        },
        {
          "internalType": "uint16",
          "name": "marketing",
          "type": "uint16"
        }
      ],
      "name": "setBuyFee",
      "outputs": [],
      "stateMutability": "nonpayable",
      "type": "function"
    },
    {
      "inputs": [
        {
          "internalType": "uint16",
          "name": "tax",
          "type": "uint16"
        },
        {
          "internalType": "uint16",
          "name": "marketing",
          "type": "uint16"
        }
      ],
      "name": "setSellFee",
      "outputs": [],
      "stateMutability": "nonpayable",
      "type": "function"
    },
    {
      "inputs": [],
      "name": "symbol",
      "outputs": [
        {
          "internalType": "string",
          "name": "",
          "type": "string"
        }
      ],
      "stateMutability": "view",
      "type": "function"
    },
    {
      "inputs": [
        {
          "internalType": "uint256",
          "name": "rAmount",
          "type": "uint256"
        }
      ],
      "name": "tokenFromReflection",
      "outputs": [
        {
          "internalType": "uint256",
          "name": "",
          "type": "uint256"
        }
      ],
      "stateMutability": "view",
      "type": "function"
    },
    {
      "inputs": [],
      "name": "totalSupply",
      "outputs": [
        {
          "internalType": "uint256",
          "name": "",
          "type": "uint256"
        }
      ],
      "stateMutability": "view",
      "type": "function"
    },
    {
      "inputs": [
        {
          "internalType": "address",
          "name": "recipient",
          "type": "address"
        },
        {
          "internalType": "uint256",
          "name": "amount",
          "type": "uint256"
        }
      ],
      "name": "transfer",
      "outputs": [
        {
          "internalType": "bool",
          "name": "",
          "type": "bool"
        }
      ],
      "stateMutability": "nonpayable",
      "type": "function"
    },
    {
      "inputs": [
        {
          "internalType": "address",
          "name": "sender",
          "type": "address"
        },
        {
          "internalType": "address",
          "name": "recipient",
          "type": "address"
        },
        {
          "internalType": "uint256",
          "name": "amount",
          "type": "uint256"
        }
      ],
      "name": "transferFrom",
      "outputs": [
        {
          "internalType": "bool",
          "name": "",
          "type": "bool"
        }
      ],
      "stateMutability": "nonpayable",
      "type": "function"
    },
    {
      "inputs": [
        {
          "internalType": "address",
          "name": "newOwner",
          "type": "address"
        }
      ],
      "name": "transferOwnership",
      "outputs": [],
      "stateMutability": "nonpayable",
      "type": "function"
    },
    {
      "inputs": [],
      "name": "uniswapV2Pair",
      "outputs": [
        {
          "internalType": "address",
          "name": "",
          "type": "address"
        }
      ],
      "stateMutability": "view",
      "type": "function"
    },
    {
      "inputs": [],
      "name": "uniswapV2Router",
      "outputs": [
        {
          "internalType": "contract IUniswapV2Router02",
          "name": "",
          "type": "address"
        }
      ],
      "stateMutability": "view",
      "type": "function"
    },
    {
      "inputs": [
        {
          "internalType": "address payable",
          "name": "newAddress",
          "type": "address"
        }
      ],
      "name": "updateMarketingWallet",
      "outputs": [],
      "stateMutability": "nonpayable",
      "type": "function"
    },
    {
      "stateMutability": "payable",
      "type": "receive"
    }
  ],
  "transactionHash": "0x0aa6819eaea16be3997a6ccc247064d798bcb5fe6b870159a336bb32eed79d88",
  "args": [],
  "numDeployments": 1,
  "solcInputHash": "d2ef403d5ce85893904d98c4111ccd46",
  "bytecode": "0x60c060405269021e19e0c9bab24000006008819055620000229060001962000437565b62000030906000196200045a565b600955600b80546001600160a01b03191673aba88c90551ae60a1b5f94f677005d382248b8cf17905560408051808201909152600a8082526920a9a4ac102a37b5b2b760b11b60209092019182526200008c91600c9162000391565b5060408051808201909152600480825263082a692b60e31b6020909201918252620000ba91600d9162000391565b50600e805460ff19166009179055348015620000d557600080fd5b50600080546001600160a01b031916339081178255604051909182917f8be0079c531659141344cd1fd0a4f28419497f9722a3daafe3b4186f6b6457e0908290a3506009543360009081526002602090815260409182902092909255600f805463ffffffff1990811662070000179091556010805490911662090000179055805163c45a015560e01b81529051739ac64cc6e4415144c455bd8e4837fea55603e5c392839263c45a015592600480830193928290030181865afa158015620001a1573d6000803e3d6000fd5b505050506040513d601f19601f82011682018060405250810190620001c7919062000480565b6001600160a01b031663c9c6539630836001600160a01b031663ad5c46486040518163ffffffff1660e01b8152600401602060405180830381865afa15801562000215573d6000803e3d6000fd5b505050506040513d601f19601f820116820180604052508101906200023b919062000480565b6040516001600160e01b031960e085901b1681526001600160a01b039283166004820152911660248201526044016020604051808303816000875af115801562000289573d6000803e3d6000fd5b505050506040513d601f19601f82011682018060405250810190620002af919062000480565b6001600160a01b0390811660a0528116608052600160056000620002db6000546001600160a01b031690565b6001600160a01b03908116825260208083019390935260409182016000908120805495151560ff199687161790553081526005909352818320805485166001908117909155600b549091168352912080549092161790556200033a3390565b6001600160a01b031660006001600160a01b03167fddf252ad1be2c89b69c2b068fc378daa952ba7f163c4a11628f55a4df523b3ef6008546040516200038291815260200190565b60405180910390a350620004ef565b8280546200039f90620004b2565b90600052602060002090601f016020900481019282620003c357600085556200040e565b82601f10620003de57805160ff19168380011785556200040e565b828001600101855582156200040e579182015b828111156200040e578251825591602001919060010190620003f1565b506200041c92915062000420565b5090565b5b808211156200041c576000815560010162000421565b6000826200045557634e487b7160e01b600052601260045260246000fd5b500690565b6000828210156200047b57634e487b7160e01b600052601160045260246000fd5b500390565b6000602082840312156200049357600080fd5b81516001600160a01b0381168114620004ab57600080fd5b9392505050565b600181811c90821680620004c757607f821691505b60208210811415620004e957634e487b7160e01b600052602260045260246000fd5b50919050565b60805160a051611d1a6200053160003960008181610372015281816110110152818161107c015281816110be01526110fb015260006101fe0152611d1a6000f3fe6080604052600436106101855760003560e01c806370a08231116100d1578063a9059cbb1161008a578063dd62ed3e11610064578063dd62ed3e146104d5578063ea2f0b371461051b578063ec2a520a1461053b578063f2fde38b1461055b57600080fd5b8063a9059cbb14610475578063aacebbe314610495578063caac7934146104b557600080fd5b806370a08231146103cd578063715018a6146103ed5780637afad249146104025780638da5cb5b1461042257806395d89b4114610440578063a457c2d71461045557600080fd5b80632d8381191161013e578063437823ec11610118578063437823ec14610319578063470624021461033b57806349bd5a5e146103605780635342acb41461039457600080fd5b80632d838119146102b7578063313ce567146102d757806339509351146102f957600080fd5b806306fdde0314610191578063095ea7b3146101bc5780631694505e146101ec57806318160ddd1461023857806323b872dd146102575780632b14ca561461027757600080fd5b3661018c57005b600080fd5b34801561019d57600080fd5b506101a661057b565b6040516101b391906119b7565b60405180910390f35b3480156101c857600080fd5b506101dc6101d7366004611a24565b61060d565b60405190151581526020016101b3565b3480156101f857600080fd5b506102207f000000000000000000000000000000000000000000000000000000000000000081565b6040516001600160a01b0390911681526020016101b3565b34801561024457600080fd5b506008545b6040519081526020016101b3565b34801561026357600080fd5b506101dc610272366004611a50565b610624565b34801561028357600080fd5b5060105461029c9061ffff808216916201000090041682565b6040805161ffff9384168152929091166020830152016101b3565b3480156102c357600080fd5b506102496102d2366004611a91565b61068d565b3480156102e357600080fd5b50600e5460405160ff90911681526020016101b3565b34801561030557600080fd5b506101dc610314366004611a24565b610716565b34801561032557600080fd5b50610339610334366004611aaa565b61074c565b005b34801561034757600080fd5b50600f5461029c9061ffff808216916201000090041682565b34801561036c57600080fd5b506102207f000000000000000000000000000000000000000000000000000000000000000081565b3480156103a057600080fd5b506101dc6103af366004611aaa565b6001600160a01b031660009081526005602052604090205460ff1690565b3480156103d957600080fd5b506102496103e8366004611aaa565b61079a565b3480156103f957600080fd5b506103396107f9565b34801561040e57600080fd5b5061033961041d366004611ade565b61086d565b34801561042e57600080fd5b506000546001600160a01b0316610220565b34801561044c57600080fd5b506101a6610968565b34801561046157600080fd5b506101dc610470366004611a24565b610977565b34801561048157600080fd5b506101dc610490366004611a24565b6109c6565b3480156104a157600080fd5b506103396104b0366004611aaa565b6109d3565b3480156104c157600080fd5b50600b54610220906001600160a01b031681565b3480156104e157600080fd5b506102496104f0366004611b11565b6001600160a01b03918216600090815260046020908152604080832093909416825291909152205490565b34801561052757600080fd5b50610339610536366004611aaa565b610a1f565b34801561054757600080fd5b50610339610556366004611ade565b610a6a565b34801561056757600080fd5b50610339610576366004611aaa565b610b66565b6060600c805461058a90611b4a565b80601f01602080910402602001604051908101604052809291908181526020018280546105b690611b4a565b80156106035780601f106105d857610100808354040283529160200191610603565b820191906000526020600020905b8154815290600101906020018083116105e657829003601f168201915b5050505050905090565b600061061a338484610c50565b5060015b92915050565b6000610631848484610d74565b610683843361067e85604051806060016040528060288152602001611c98602891396001600160a01b038a1660009081526004602090815260408083203384529091529020549190610ef9565b610c50565b5060019392505050565b60006009548211156106f95760405162461bcd60e51b815260206004820152602a60248201527f416d6f756e74206d757374206265206c657373207468616e20746f74616c207260448201526965666c656374696f6e7360b01b60648201526084015b60405180910390fd5b6000610703610f33565b905061070f8382610f56565b9392505050565b3360008181526004602090815260408083206001600160a01b0387168452909152812054909161061a91859061067e9086610f98565b6000546001600160a01b031633146107765760405162461bcd60e51b81526004016106f090611b85565b6001600160a01b03166000908152600560205260409020805460ff19166001179055565b6001600160a01b03811660009081526006602052604081205460ff16156107d757506001600160a01b031660009081526003602052604090205490565b6001600160a01b03821660009081526002602052604090205461061e9061068d565b6000546001600160a01b031633146108235760405162461bcd60e51b81526004016106f090611b85565b600080546040516001600160a01b03909116907f8be0079c531659141344cd1fd0a4f28419497f9722a3daafe3b4186f6b6457e0908390a3600080546001600160a01b0319169055565b6000546001600160a01b031633146108975760405162461bcd60e51b81526004016106f090611b85565b60646108a38284611bd0565b61ffff1611156108e95760405162461bcd60e51b81526020600482015260116024820152700427579466565206578636565642031303607c1b60448201526064016106f0565b600f546040805161ffff80841682526201000090930483166020820152848316818301529183166060830152517f3d839c4d8187eded7cfbdfb38e8c68ae748d7c674400c8c3b8c837ba2933d1ac9181900360800190a1600f805461ffff928316620100000263ffffffff199091169290931691909117919091179055565b6060600d805461058a90611b4a565b600061061a338461067e85604051806060016040528060258152602001611cc0602591393360009081526004602090815260408083206001600160a01b038d1684529091529020549190610ef9565b600061061a338484610d74565b6000546001600160a01b031633146109fd5760405162461bcd60e51b81526004016106f090611b85565b600b80546001600160a01b0319166001600160a01b0392909216919091179055565b6000546001600160a01b03163314610a495760405162461bcd60e51b81526004016106f090611b85565b6001600160a01b03166000908152600560205260409020805460ff19169055565b6000546001600160a01b03163314610a945760405162461bcd60e51b81526004016106f090611b85565b6064610aa08284611bd0565b61ffff161115610ae75760405162461bcd60e51b8152602060048201526012602482015271053656c6c46656520657863656564203130360741b60448201526064016106f0565b6010546040805161ffff80841682526201000090930483166020820152848316818301529183166060830152517f5453929bc359b94bdd2542a6d8391ca15fe386d74f044db5277328a36de3c6509181900360800190a16010805461ffff928316620100000263ffffffff199091169290931691909117919091179055565b6000546001600160a01b03163314610b905760405162461bcd60e51b81526004016106f090611b85565b6001600160a01b038116610bf55760405162461bcd60e51b815260206004820152602660248201527f4f776e61626c653a206e6577206f776e657220697320746865207a65726f206160448201526564647265737360d01b60648201526084016106f0565b600080546040516001600160a01b03808516939216917f8be0079c531659141344cd1fd0a4f28419497f9722a3daafe3b4186f6b6457e091a3600080546001600160a01b0319166001600160a01b0392909216919091179055565b6001600160a01b038316610cb25760405162461bcd60e51b8152602060048201526024808201527f45524332303a20617070726f76652066726f6d20746865207a65726f206164646044820152637265737360e01b60648201526084016106f0565b6001600160a01b038216610d135760405162461bcd60e51b815260206004820152602260248201527f45524332303a20617070726f766520746f20746865207a65726f206164647265604482015261737360f01b60648201526084016106f0565b6001600160a01b0383811660008181526004602090815260408083209487168084529482529182902085905590518481527f8c5be1e5ebec7d5bd14f71427d1e84f3dd0314c0f7b2291e5b200ac8c7c3b925910160405180910390a3505050565b6001600160a01b038316610dd85760405162461bcd60e51b815260206004820152602560248201527f45524332303a207472616e736665722066726f6d20746865207a65726f206164604482015264647265737360d81b60648201526084016106f0565b6001600160a01b038216610e3a5760405162461bcd60e51b815260206004820152602360248201527f45524332303a207472616e7366657220746f20746865207a65726f206164647260448201526265737360e81b60648201526084016106f0565b60008111610e9c5760405162461bcd60e51b815260206004820152602960248201527f5472616e7366657220616d6f756e74206d7573742062652067726561746572206044820152687468616e207a65726f60b81b60648201526084016106f0565b6001600160a01b03831660009081526005602052604090205460019060ff1680610ede57506001600160a01b03831660009081526005602052604090205460ff165b15610ee7575060005b610ef384848484610ff7565b50505050565b60008184841115610f1d5760405162461bcd60e51b81526004016106f091906119b7565b506000610f2a8486611bf6565b95945050505050565b6000806000610f406112a3565b9092509050610f4f8282610f56565b9250505090565b600061070f83836040518060400160405280601a81526020017f536166654d6174683a206469766973696f6e206279207a65726f000000000000815250611425565b600080610fa58385611c0d565b90508381101561070f5760405162461bcd60e51b815260206004820152601b60248201527f536166654d6174683a206164646974696f6e206f766572666c6f77000000000060448201526064016106f0565b801561113d5761100f6011805463ffffffff19169055565b7f00000000000000000000000000000000000000000000000000000000000000006001600160a01b0316846001600160a01b0316141561107a5761107a600f54601180546201000080840461ffff90811690910263ffffffff19909216931692909217919091179055565b7f00000000000000000000000000000000000000000000000000000000000000006001600160a01b0316836001600160a01b031614156110bc576110bc611453565b7f00000000000000000000000000000000000000000000000000000000000000006001600160a01b0316846001600160a01b03161415801561113057507f00000000000000000000000000000000000000000000000000000000000000006001600160a01b0316836001600160a01b031614155b1561113d5761113d611453565b6001600160a01b03841660009081526006602052604090205460ff16801561117e57506001600160a01b03831660009081526006602052604090205460ff16155b156111935761118e848484611481565b611291565b6001600160a01b03841660009081526006602052604090205460ff161580156111d457506001600160a01b03831660009081526006602052604090205460ff165b156111e45761118e8484846115ba565b6001600160a01b03841660009081526006602052604090205460ff1615801561122657506001600160a01b03831660009081526006602052604090205460ff16155b156112365761118e848484611671565b6001600160a01b03841660009081526006602052604090205460ff16801561127657506001600160a01b03831660009081526006602052604090205460ff165b156112865761118e8484846116c3565b611291848484611671565b610ef36011805463ffffffff19169055565b6009546008546000918291825b6007548110156113f5578260026000600784815481106112d2576112d2611c25565b60009182526020808320909101546001600160a01b03168352820192909252604001902054118061133d575081600360006007848154811061131657611316611c25565b60009182526020808320909101546001600160a01b03168352820192909252604001902054115b1561135357600954600854945094505050509091565b611399600260006007848154811061136d5761136d611c25565b60009182526020808320909101546001600160a01b031683528201929092526040019020548490611740565b92506113e160036000600784815481106113b5576113b5611c25565b60009182526020808320909101546001600160a01b031683528201929092526040019020548390611740565b9150806113ed81611c3b565b9150506112b0565b5060085460095461140591610f56565b82101561141c576009546008549350935050509091565b90939092509050565b600081836114465760405162461bcd60e51b81526004016106f091906119b7565b506000610f2a8486611c56565b601054601180546201000080840461ffff90811690910263ffffffff19909216931692909217919091179055565b600080600061148f84611782565b92509250925060008060006114ad8786866114a8610f33565b6117c4565b6001600160a01b038c1660009081526003602052604090205492955090935091506114d89088611740565b6001600160a01b038a166000908152600360209081526040808320939093556002905220546115079084611740565b6001600160a01b03808b1660009081526002602052604080822093909355908a16815220546115369083610f98565b6001600160a01b03891660009081526002602052604090205561155884611814565b61156281866118d4565b876001600160a01b0316896001600160a01b03167fddf252ad1be2c89b69c2b068fc378daa952ba7f163c4a11628f55a4df523b3ef886040516115a791815260200190565b60405180910390a3505050505050505050565b60008060006115c884611782565b92509250925060008060006115e18786866114a8610f33565b6001600160a01b038c16600090815260026020526040902054929550909350915061160c9084611740565b6001600160a01b03808b16600090815260026020908152604080832094909455918b168152600390915220546116429087610f98565b6001600160a01b0389166000908152600360209081526040808320939093556002905220546115369083610f98565b600080600061167f84611782565b92509250925060008060006116988786866114a8610f33565b6001600160a01b038c1660009081526002602052604090205492955090935091506115079084611740565b60008060006116d184611782565b92509250925060008060006116ea8786866114a8610f33565b6001600160a01b038c1660009081526003602052604090205492955090935091506117159088611740565b6001600160a01b038a1660009081526003602090815260408083209390935560029052205461160c90845b600061070f83836040518060400160405280601e81526020017f536166654d6174683a207375627472616374696f6e206f766572666c6f770000815250610ef9565b600080600080611791856118f8565b9050600061179e8661191a565b905060006117b6826117b08986611740565b90611740565b979296509094509092505050565b60008080806117d38886611938565b905060006117e18887611938565b905060006117ef8888611938565b90506000611801826117b08686611740565b939b939a50919850919650505050505050565b600061181e610f33565b9050600061182c8383611938565b600b546001600160a01b03166000908152600260205260409020549091506118549082610f98565b600b80546001600160a01b03908116600090815260026020908152604080832095909555925490911681526006909152205460ff16156118cf57600b546001600160a01b03166000908152600360205260409020546118b39084610f98565b600b546001600160a01b03166000908152600360205260409020555b505050565b6009546118e19083611740565b600955600a546118f19082610f98565b600a555050565b60115460009061061e9060649061191490859061ffff16611938565b90610f56565b60115460009061061e9060649061191490859062010000900461ffff165b6000826119475750600061061e565b60006119538385611c78565b9050826119608583611c56565b1461070f5760405162461bcd60e51b815260206004820152602160248201527f536166654d6174683a206d756c7469706c69636174696f6e206f766572666c6f6044820152607760f81b60648201526084016106f0565b600060208083528351808285015260005b818110156119e4578581018301518582016040015282016119c8565b818111156119f6576000604083870101525b50601f01601f1916929092016040019392505050565b6001600160a01b0381168114611a2157600080fd5b50565b60008060408385031215611a3757600080fd5b8235611a4281611a0c565b946020939093013593505050565b600080600060608486031215611a6557600080fd5b8335611a7081611a0c565b92506020840135611a8081611a0c565b929592945050506040919091013590565b600060208284031215611aa357600080fd5b5035919050565b600060208284031215611abc57600080fd5b813561070f81611a0c565b803561ffff81168114611ad957600080fd5b919050565b60008060408385031215611af157600080fd5b611afa83611ac7565b9150611b0860208401611ac7565b90509250929050565b60008060408385031215611b2457600080fd5b8235611b2f81611a0c565b91506020830135611b3f81611a0c565b809150509250929050565b600181811c90821680611b5e57607f821691505b60208210811415611b7f57634e487b7160e01b600052602260045260246000fd5b50919050565b6020808252818101527f4f776e61626c653a2063616c6c6572206973206e6f7420746865206f776e6572604082015260600190565b634e487b7160e01b600052601160045260246000fd5b600061ffff808316818516808303821115611bed57611bed611bba565b01949350505050565b600082821015611c0857611c08611bba565b500390565b60008219821115611c2057611c20611bba565b500190565b634e487b7160e01b600052603260045260246000fd5b6000600019821415611c4f57611c4f611bba565b5060010190565b600082611c7357634e487b7160e01b600052601260045260246000fd5b500490565b6000816000190483118215151615611c9257611c92611bba565b50029056fe45524332303a207472616e7366657220616d6f756e74206578636565647320616c6c6f77616e636545524332303a2064656372656173656420616c6c6f77616e63652062656c6f77207a65726fa26469706673582212208efaeb2c73815f8cff5e3b293450cbfb82240f95bdfa87c5ad8dd6980de4254264736f6c634300080a0033",
  "devdoc": {
    "kind": "dev",
    "methods": {
      "allowance(address,address)": {
        "details": "Returns the remaining number of tokens that `spender` will be allowed to spend on behalf of `owner` through {transferFrom}. This is zero by default. This value changes when {approve} or {transferFrom} are called."
      },
      "approve(address,uint256)": {
        "details": "Sets `amount` as the allowance of `spender` over the caller's tokens. Returns a boolean value indicating whether the operation succeeded. IMPORTANT: Beware that changing an allowance with this method brings the risk that someone may use both the old and the new allowance by unfortunate transaction ordering. One possible solution to mitigate this race condition is to first reduce the spender's allowance to 0 and set the desired value afterwards: https://github.com/ethereum/EIPs/issues/20#issuecomment-263524729 Emits an {Approval} event."
      },
      "balanceOf(address)": {
        "details": "Returns the amount of tokens owned by `account`."
      },
      "owner()": {
        "details": "Returns the address of the current owner."
      },
      "renounceOwnership()": {
        "details": "Leaves the contract without owner. It will not be possible to call `onlyOwner` functions anymore. Can only be called by the current owner. NOTE: Renouncing ownership will leave the contract without an owner, thereby removing any functionality that is only available to the owner."
      },
      "transfer(address,uint256)": {
        "details": "Moves `amount` tokens from the caller's account to `recipient`. Returns a boolean value indicating whether the operation succeeded. Emits a {Transfer} event."
      },
      "transferFrom(address,address,uint256)": {
        "details": "Moves `amount` tokens from `sender` to `recipient` using the allowance mechanism. `amount` is then deducted from the caller's allowance. Returns a boolean value indicating whether the operation succeeded. Emits a {Transfer} event."
      },
      "transferOwnership(address)": {
        "details": "Transfers ownership of the contract to a new account (`newOwner`). Can only be called by the current owner."
      }
    },
    "version": 1
  },
  "userdoc": {
    "kind": "user",
    "methods": {},
    "version": 1
  },
  "storageLayout": {
    "storage": [
      {
        "astId": 500,
        "contract": "contracts/ASIX.sol:ASIX_TOKEN",
        "label": "_owner",
        "offset": 0,
        "slot": "0",
        "type": "t_address"
      },
      {
        "astId": 502,
        "contract": "contracts/ASIX.sol:ASIX_TOKEN",
        "label": "_previousOwner",
        "offset": 0,
        "slot": "1",
        "type": "t_address"
      },
      {
        "astId": 1311,
        "contract": "contracts/ASIX.sol:ASIX_TOKEN",
        "label": "_rOwned",
        "offset": 0,
        "slot": "2",
        "type": "t_mapping(t_address,t_uint256)"
      },
      {
        "astId": 1315,
        "contract": "contracts/ASIX.sol:ASIX_TOKEN",
        "label": "_tOwned",
        "offset": 0,
        "slot": "3",
        "type": "t_mapping(t_address,t_uint256)"
      },
      {
        "astId": 1321,
        "contract": "contracts/ASIX.sol:ASIX_TOKEN",
        "label": "_allowances",
        "offset": 0,
        "slot": "4",
        "type": "t_mapping(t_address,t_mapping(t_address,t_uint256))"
      },
      {
        "astId": 1325,
        "contract": "contracts/ASIX.sol:ASIX_TOKEN",
        "label": "_isExcludedFromFee",
        "offset": 0,
        "slot": "5",
        "type": "t_mapping(t_address,t_bool)"
      },
      {
        "astId": 1329,
        "contract": "contracts/ASIX.sol:ASIX_TOKEN",
        "label": "_isExcluded",
        "offset": 0,
        "slot": "6",
        "type": "t_mapping(t_address,t_bool)"
      },
      {
        "astId": 1332,
        "contract": "contracts/ASIX.sol:ASIX_TOKEN",
        "label": "_excluded",
        "offset": 0,
        "slot": "7",
        "type": "t_array(t_address)dyn_storage"
      },
      {
        "astId": 1350,
        "contract": "contracts/ASIX.sol:ASIX_TOKEN",
        "label": "_tTotal",
        "offset": 0,
        "slot": "8",
        "type": "t_uint256"
      },
      {
        "astId": 1359,
        "contract": "contracts/ASIX.sol:ASIX_TOKEN",
        "label": "_rTotal",
        "offset": 0,
        "slot": "9",
        "type": "t_uint256"
      },
      {
        "astId": 1361,
        "contract": "contracts/ASIX.sol:ASIX_TOKEN",
        "label": "_tFeeTotal",
        "offset": 0,
        "slot": "10",
        "type": "t_uint256"
      },
      {
        "astId": 1370,
        "contract": "contracts/ASIX.sol:ASIX_TOKEN",
        "label": "_marketingAddress",
        "offset": 0,
        "slot": "11",
        "type": "t_address_payable"
      },
      {
        "astId": 1373,
        "contract": "contracts/ASIX.sol:ASIX_TOKEN",
        "label": "_name",
        "offset": 0,
        "slot": "12",
        "type": "t_string_storage"
      },
      {
        "astId": 1376,
        "contract": "contracts/ASIX.sol:ASIX_TOKEN",
        "label": "_symbol",
        "offset": 0,
        "slot": "13",
        "type": "t_string_storage"
      },
      {
        "astId": 1379,
        "contract": "contracts/ASIX.sol:ASIX_TOKEN",
        "label": "_decimals",
        "offset": 0,
        "slot": "14",
        "type": "t_uint8"
      },
      {
        "astId": 1392,
        "contract": "contracts/ASIX.sol:ASIX_TOKEN",
        "label": "buyFee",
        "offset": 0,
        "slot": "15",
        "type": "t_struct(BuyFee)1384_storage"
      },
      {
        "astId": 1395,
        "contract": "contracts/ASIX.sol:ASIX_TOKEN",
        "label": "sellFee",
        "offset": 0,
        "slot": "16",
        "type": "t_struct(SellFee)1389_storage"
      },
      {
        "astId": 1397,
        "contract": "contracts/ASIX.sol:ASIX_TOKEN",
        "label": "_taxFee",
        "offset": 0,
        "slot": "17",
        "type": "t_uint16"
      },
      {
        "astId": 1399,
        "contract": "contracts/ASIX.sol:ASIX_TOKEN",
        "label": "_marketingFee",
        "offset": 2,
        "slot": "17",
        "type": "t_uint16"
      }
    ],
    "types": {
      "t_address": {
        "encoding": "inplace",
        "label": "address",
        "numberOfBytes": "20"
      },
      "t_address_payable": {
        "encoding": "inplace",
        "label": "address payable",
        "numberOfBytes": "20"
      },
      "t_array(t_address)dyn_storage": {
        "base": "t_address",
        "encoding": "dynamic_array",
        "label": "address[]",
        "numberOfBytes": "32"
      },
      "t_bool": {
        "encoding": "inplace",
        "label": "bool",
        "numberOfBytes": "1"
      },
      "t_mapping(t_address,t_bool)": {
        "encoding": "mapping",
        "key": "t_address",
        "label": "mapping(address => bool)",
        "numberOfBytes": "32",
        "value": "t_bool"
      },
      "t_mapping(t_address,t_mapping(t_address,t_uint256))": {
        "encoding": "mapping",
        "key": "t_address",
        "label": "mapping(address => mapping(address => uint256))",
        "numberOfBytes": "32",
        "value": "t_mapping(t_address,t_uint256)"
      },
      "t_mapping(t_address,t_uint256)": {
        "encoding": "mapping",
        "key": "t_address",
        "label": "mapping(address => uint256)",
        "numberOfBytes": "32",
        "value": "t_uint256"
      },
      "t_string_storage": {
        "encoding": "bytes",
        "label": "string",
        "numberOfBytes": "32"
      },
      "t_struct(BuyFee)1384_storage": {
        "encoding": "inplace",
        "label": "struct ASIX_TOKEN.BuyFee",
        "members": [
          {
            "astId": 1381,
            "contract": "contracts/ASIX.sol:ASIX_TOKEN",
            "label": "tax",
            "offset": 0,
            "slot": "0",
            "type": "t_uint16"
          },
          {
            "astId": 1383,
            "contract": "contracts/ASIX.sol:ASIX_TOKEN",
            "label": "marketing",
            "offset": 2,
            "slot": "0",
            "type": "t_uint16"
          }
        ],
        "numberOfBytes": "32"
      },
      "t_struct(SellFee)1389_storage": {
        "encoding": "inplace",
        "label": "struct ASIX_TOKEN.SellFee",
        "members": [
          {
            "astId": 1386,
            "contract": "contracts/ASIX.sol:ASIX_TOKEN",
            "label": "tax",
            "offset": 0,
            "slot": "0",
            "type": "t_uint16"
          },
          {
            "astId": 1388,
            "contract": "contracts/ASIX.sol:ASIX_TOKEN",
            "label": "marketing",
            "offset": 2,
            "slot": "0",
            "type": "t_uint16"
          }
        ],
        "numberOfBytes": "32"
      },
      "t_uint16": {
        "encoding": "inplace",
        "label": "uint16",
        "numberOfBytes": "2"
      },
      "t_uint256": {
        "encoding": "inplace",
        "label": "uint256",
        "numberOfBytes": "32"
      },
      "t_uint8": {
        "encoding": "inplace",
        "label": "uint8",
        "numberOfBytes": "1"
      }
    }
  }
}