{
  "address": "0x230dE9fa14370C1a908fb391C9e27F52edc965b6",
  "abi": [
    {
      "inputs": [
        {
          "internalType": "address",
          "name": "marketplaceAddress",
          "type": "address"
        }
      ],
      "stateMutability": "nonpayable",
      "type": "constructor"
    },
    {
      "anonymous": false,
      "inputs": [
        {
          "indexed": true,
          "internalType": "address",
          "name": "owner",
          "type": "address"
        },
        {
          "indexed": true,
          "internalType": "address",
          "name": "approved",
          "type": "address"
        },
        {
          "indexed": true,
          "internalType": "uint256",
          "name": "tokenId",
          "type": "uint256"
        }
      ],
      "name": "Approval",
      "type": "event"
    },
    {
      "anonymous": false,
      "inputs": [
        {
          "indexed": true,
          "internalType": "address",
          "name": "owner",
          "type": "address"
        },
        {
          "indexed": true,
          "internalType": "address",
          "name": "operator",
          "type": "address"
        },
        {
          "indexed": false,
          "internalType": "bool",
          "name": "approved",
          "type": "bool"
        }
      ],
      "name": "ApprovalForAll",
      "type": "event"
    },
    {
      "anonymous": false,
      "inputs": [
        {
          "indexed": true,
          "internalType": "address",
          "name": "from",
          "type": "address"
        },
        {
          "indexed": true,
          "internalType": "address",
          "name": "to",
          "type": "address"
        },
        {
          "indexed": true,
          "internalType": "uint256",
          "name": "tokenId",
          "type": "uint256"
        }
      ],
      "name": "Transfer",
      "type": "event"
    },
    {
      "inputs": [
        {
          "internalType": "address",
          "name": "to",
          "type": "address"
        },
        {
          "internalType": "uint256",
          "name": "tokenId",
          "type": "uint256"
        }
      ],
      "name": "approve",
      "outputs": [],
      "stateMutability": "nonpayable",
      "type": "function"
    },
    {
      "inputs": [
        {
          "internalType": "address",
          "name": "owner",
          "type": "address"
        }
      ],
      "name": "balanceOf",
      "outputs": [
        {
          "internalType": "uint256",
          "name": "",
          "type": "uint256"
        }
      ],
      "stateMutability": "view",
      "type": "function"
    },
    {
      "inputs": [
        {
          "internalType": "string",
          "name": "nftTokenURl",
          "type": "string"
        }
      ],
      "name": "createNFTToken",
      "outputs": [
        {
          "internalType": "uint256",
          "name": "",
          "type": "uint256"
        }
      ],
      "stateMutability": "nonpayable",
      "type": "function"
    },
    {
      "inputs": [
        {
          "internalType": "uint256",
          "name": "tokenId",
          "type": "uint256"
        }
      ],
      "name": "getApproved",
      "outputs": [
        {
          "internalType": "address",
          "name": "",
          "type": "address"
        }
      ],
      "stateMutability": "view",
      "type": "function"
    },
    {
      "inputs": [],
      "name": "getMarketplaceContract",
      "outputs": [
        {
          "internalType": "address",
          "name": "",
          "type": "address"
        }
      ],
      "stateMutability": "view",
      "type": "function"
    },
    {
      "inputs": [
        {
          "internalType": "address",
          "name": "owner",
          "type": "address"
        },
        {
          "internalType": "address",
          "name": "operator",
          "type": "address"
        }
      ],
      "name": "isApprovedForAll",
      "outputs": [
        {
          "internalType": "bool",
          "name": "",
          "type": "bool"
        }
      ],
      "stateMutability": "view",
      "type": "function"
    },
    {
      "inputs": [],
      "name": "name",
      "outputs": [
        {
          "internalType": "string",
          "name": "",
          "type": "string"
        }
      ],
      "stateMutability": "view",
      "type": "function"
    },
    {
      "inputs": [
        {
          "internalType": "uint256",
          "name": "tokenId",
          "type": "uint256"
        }
      ],
      "name": "ownerOf",
      "outputs": [
        {
          "internalType": "address",
          "name": "",
          "type": "address"
        }
      ],
      "stateMutability": "view",
      "type": "function"
    },
    {
      "inputs": [
        {
          "internalType": "address",
          "name": "from",
          "type": "address"
        },
        {
          "internalType": "address",
          "name": "to",
          "type": "address"
        },
        {
          "internalType": "uint256",
          "name": "tokenId",
          "type": "uint256"
        }
      ],
      "name": "safeTransferFrom",
      "outputs": [],
      "stateMutability": "nonpayable",
      "type": "function"
    },
    {
      "inputs": [
        {
          "internalType": "address",
          "name": "from",
          "type": "address"
        },
        {
          "internalType": "address",
          "name": "to",
          "type": "address"
        },
        {
          "internalType": "uint256",
          "name": "tokenId",
          "type": "uint256"
        },
        {
          "internalType": "bytes",
          "name": "_data",
          "type": "bytes"
        }
      ],
      "name": "safeTransferFrom",
      "outputs": [],
      "stateMutability": "nonpayable",
      "type": "function"
    },
    {
      "inputs": [
        {
          "internalType": "address",
          "name": "operator",
          "type": "address"
        },
        {
          "internalType": "bool",
          "name": "approved",
          "type": "bool"
        }
      ],
      "name": "setApprovalForAll",
      "outputs": [],
      "stateMutability": "nonpayable",
      "type": "function"
    },
    {
      "inputs": [
        {
          "internalType": "bytes4",
          "name": "interfaceId",
          "type": "bytes4"
        }
      ],
      "name": "supportsInterface",
      "outputs": [
        {
          "internalType": "bool",
          "name": "",
          "type": "bool"
        }
      ],
      "stateMutability": "view",
      "type": "function"
    },
    {
      "inputs": [],
      "name": "symbol",
      "outputs": [
        {
          "internalType": "string",
          "name": "",
          "type": "string"
        }
      ],
      "stateMutability": "view",
      "type": "function"
    },
    {
      "inputs": [
        {
          "internalType": "uint256",
          "name": "tokenId",
          "type": "uint256"
        }
      ],
      "name": "tokenURI",
      "outputs": [
        {
          "internalType": "string",
          "name": "",
          "type": "string"
        }
      ],
      "stateMutability": "view",
      "type": "function"
    },
    {
      "inputs": [
        {
          "internalType": "address",
          "name": "from",
          "type": "address"
        },
        {
          "internalType": "address",
          "name": "to",
          "type": "address"
        },
        {
          "internalType": "uint256",
          "name": "tokenId",
          "type": "uint256"
        }
      ],
      "name": "transferFrom",
      "outputs": [],
      "stateMutability": "nonpayable",
      "type": "function"
    }
  ],
  "transactionHash": "0x2f5be1e9f850c10d6f98417b04320c04933a0b98d2c5a3fe59237ae3ae730796",
  "args": [
    "0xB8f3646c5582Bc37288cC65b20Ed36c3eDC9BBE0"
  ],
  "numDeployments": 4,
  "solcInputHash": "c163b21b45f789deea5028b90e9bb202",
  "bytecode": "0x60806040523480156200001157600080fd5b50604051620018e1380380620018e1833981016040819052620000349162000168565b6040805180820182526009815268185c98589a58d3919d60ba1b602080830191825283518085019094526005845264185c93919560da1b9084015281519192916200008291600091620000c2565b50805162000098906001906020840190620000c2565b5050600880546001600160a01b0319166001600160a01b03939093169290921790915550620001d7565b828054620000d0906200019a565b90600052602060002090601f016020900481019282620000f457600085556200013f565b82601f106200010f57805160ff19168380011785556200013f565b828001600101855582156200013f579182015b828111156200013f57825182559160200191906001019062000122565b506200014d92915062000151565b5090565b5b808211156200014d576000815560010162000152565b6000602082840312156200017b57600080fd5b81516001600160a01b03811681146200019357600080fd5b9392505050565b600181811c90821680620001af57607f821691505b60208210811415620001d157634e487b7160e01b600052602260045260246000fd5b50919050565b6116fa80620001e76000396000f3fe608060405234801561001057600080fd5b50600436106100f55760003560e01c80636352211e11610097578063aff4657211610066578063aff46572146101ff578063b88d4fde14610210578063c87b56dd14610223578063e985e9c51461023657600080fd5b80636352211e146101be57806370a08231146101d157806395d89b41146101e4578063a22cb465146101ec57600080fd5b8063095ea7b3116100d3578063095ea7b31461016257806323b872dd1461017757806342842e0e1461018a57806349f86ee41461019d57600080fd5b806301ffc9a7146100fa57806306fdde0314610122578063081812fc14610137575b600080fd5b61010d6101083660046111ab565b610272565b60405190151581526020015b60405180910390f35b61012a6102c4565b6040516101199190611220565b61014a610145366004611233565b610356565b6040516001600160a01b039091168152602001610119565b610175610170366004611268565b6103e3565b005b610175610185366004611292565b6104f9565b610175610198366004611292565b61052a565b6101b06101ab36600461135a565b610545565b604051908152602001610119565b61014a6101cc366004611233565b61058d565b6101b06101df3660046113a3565b610604565b61012a61068b565b6101756101fa3660046113be565b61069a565b6008546001600160a01b031661014a565b61017561021e3660046113fa565b6106a9565b61012a610231366004611233565b6106e1565b61010d610244366004611476565b6001600160a01b03918216600090815260056020908152604080832093909416825291909152205460ff1690565b60006001600160e01b031982166380ac58cd60e01b14806102a357506001600160e01b03198216635b5e139f60e01b145b806102be57506301ffc9a760e01b6001600160e01b03198316145b92915050565b6060600080546102d3906114a9565b80601f01602080910402602001604051908101604052809291908181526020018280546102ff906114a9565b801561034c5780601f106103215761010080835404028352916020019161034c565b820191906000526020600020905b81548152906001019060200180831161032f57829003601f168201915b5050505050905090565b600061036182610858565b6103c75760405162461bcd60e51b815260206004820152602c60248201527f4552433732313a20617070726f76656420717565727920666f72206e6f6e657860448201526b34b9ba32b73a103a37b5b2b760a11b60648201526084015b60405180910390fd5b506000908152600460205260409020546001600160a01b031690565b60006103ee8261058d565b9050806001600160a01b0316836001600160a01b0316141561045c5760405162461bcd60e51b815260206004820152602160248201527f4552433732313a20617070726f76616c20746f2063757272656e74206f776e656044820152603960f91b60648201526084016103be565b336001600160a01b038216148061047857506104788133610244565b6104ea5760405162461bcd60e51b815260206004820152603860248201527f4552433732313a20617070726f76652063616c6c6572206973206e6f74206f7760448201527f6e6572206e6f7220617070726f76656420666f7220616c6c000000000000000060648201526084016103be565b6104f48383610875565b505050565b61050333826108e3565b61051f5760405162461bcd60e51b81526004016103be906114e4565b6104f48383836109c9565b6104f4838383604051806020016040528060008152506106a9565b6000610555600780546001019055565b600061056060075490565b905061056c3382610b65565b6105768184610c98565b6008546102be906001600160a01b0316600161069a565b6000818152600260205260408120546001600160a01b0316806102be5760405162461bcd60e51b815260206004820152602960248201527f4552433732313a206f776e657220717565727920666f72206e6f6e657869737460448201526832b73a103a37b5b2b760b91b60648201526084016103be565b60006001600160a01b03821661066f5760405162461bcd60e51b815260206004820152602a60248201527f4552433732313a2062616c616e636520717565727920666f7220746865207a65604482015269726f206164647265737360b01b60648201526084016103be565b506001600160a01b031660009081526003602052604090205490565b6060600180546102d3906114a9565b6106a5338383610d23565b5050565b6106b333836108e3565b6106cf5760405162461bcd60e51b81526004016103be906114e4565b6106db84848484610df2565b50505050565b60606106ec82610858565b6107525760405162461bcd60e51b815260206004820152603160248201527f45524337323155524953746f726167653a2055524920717565727920666f72206044820152703737b732bc34b9ba32b73a103a37b5b2b760791b60648201526084016103be565b6000828152600660205260408120805461076b906114a9565b80601f0160208091040260200160405190810160405280929190818152602001828054610797906114a9565b80156107e45780601f106107b9576101008083540402835291602001916107e4565b820191906000526020600020905b8154815290600101906020018083116107c757829003601f168201915b50505050509050600061080260408051602081019091526000815290565b9050805160001415610815575092915050565b81511561084757808260405160200161082f929190611535565b60405160208183030381529060405292505050919050565b61085084610e25565b949350505050565b6000908152600260205260409020546001600160a01b0316151590565b600081815260046020526040902080546001600160a01b0319166001600160a01b03841690811790915581906108aa8261058d565b6001600160a01b03167f8c5be1e5ebec7d5bd14f71427d1e84f3dd0314c0f7b2291e5b200ac8c7c3b92560405160405180910390a45050565b60006108ee82610858565b61094f5760405162461bcd60e51b815260206004820152602c60248201527f4552433732313a206f70657261746f7220717565727920666f72206e6f6e657860448201526b34b9ba32b73a103a37b5b2b760a11b60648201526084016103be565b600061095a8361058d565b9050806001600160a01b0316846001600160a01b031614806109955750836001600160a01b031661098a84610356565b6001600160a01b0316145b8061085057506001600160a01b0380821660009081526005602090815260408083209388168352929052205460ff16610850565b826001600160a01b03166109dc8261058d565b6001600160a01b031614610a405760405162461bcd60e51b815260206004820152602560248201527f4552433732313a207472616e736665722066726f6d20696e636f72726563742060448201526437bbb732b960d91b60648201526084016103be565b6001600160a01b038216610aa25760405162461bcd60e51b8152602060048201526024808201527f4552433732313a207472616e7366657220746f20746865207a65726f206164646044820152637265737360e01b60648201526084016103be565b610aad600082610875565b6001600160a01b0383166000908152600360205260408120805460019290610ad690849061157a565b90915550506001600160a01b0382166000908152600360205260408120805460019290610b04908490611591565b909155505060008181526002602052604080822080546001600160a01b0319166001600160a01b0386811691821790925591518493918716917fddf252ad1be2c89b69c2b068fc378daa952ba7f163c4a11628f55a4df523b3ef91a4505050565b6001600160a01b038216610bbb5760405162461bcd60e51b815260206004820181905260248201527f4552433732313a206d696e7420746f20746865207a65726f206164647265737360448201526064016103be565b610bc481610858565b15610c115760405162461bcd60e51b815260206004820152601c60248201527f4552433732313a20746f6b656e20616c7265616479206d696e7465640000000060448201526064016103be565b6001600160a01b0382166000908152600360205260408120805460019290610c3a908490611591565b909155505060008181526002602052604080822080546001600160a01b0319166001600160a01b03861690811790915590518392907fddf252ad1be2c89b69c2b068fc378daa952ba7f163c4a11628f55a4df523b3ef908290a45050565b610ca182610858565b610d045760405162461bcd60e51b815260206004820152602e60248201527f45524337323155524953746f726167653a2055524920736574206f66206e6f6e60448201526d32bc34b9ba32b73a103a37b5b2b760911b60648201526084016103be565b600082815260066020908152604090912082516104f4928401906110f9565b816001600160a01b0316836001600160a01b03161415610d855760405162461bcd60e51b815260206004820152601960248201527f4552433732313a20617070726f766520746f2063616c6c65720000000000000060448201526064016103be565b6001600160a01b03838116600081815260056020908152604080832094871680845294825291829020805460ff191686151590811790915591519182527f17307eab39ab6107e8899845ad3d59bd9653f200f220920489ca2b5937696c31910160405180910390a3505050565b610dfd8484846109c9565b610e0984848484610efd565b6106db5760405162461bcd60e51b81526004016103be906115a9565b6060610e3082610858565b610e945760405162461bcd60e51b815260206004820152602f60248201527f4552433732314d657461646174613a2055524920717565727920666f72206e6f60448201526e3732bc34b9ba32b73a103a37b5b2b760891b60648201526084016103be565b6000610eab60408051602081019091526000815290565b90506000815111610ecb5760405180602001604052806000815250610ef6565b80610ed584610ffb565b604051602001610ee6929190611535565b6040516020818303038152906040525b9392505050565b60006001600160a01b0384163b15610ff057604051630a85bd0160e11b81526001600160a01b0385169063150b7a0290610f419033908990889088906004016115fb565b6020604051808303816000875af1925050508015610f7c575060408051601f3d908101601f19168201909252610f7991810190611638565b60015b610fd6573d808015610faa576040519150601f19603f3d011682016040523d82523d6000602084013e610faf565b606091505b508051610fce5760405162461bcd60e51b81526004016103be906115a9565b805181602001fd5b6001600160e01b031916630a85bd0160e11b149050610850565b506001949350505050565b60608161101f5750506040805180820190915260018152600360fc1b602082015290565b8160005b8115611049578061103381611655565b91506110429050600a83611686565b9150611023565b60008167ffffffffffffffff811115611064576110646112ce565b6040519080825280601f01601f19166020018201604052801561108e576020820181803683370190505b5090505b8415610850576110a360018361157a565b91506110b0600a8661169a565b6110bb906030611591565b60f81b8183815181106110d0576110d06116ae565b60200101906001600160f81b031916908160001a9053506110f2600a86611686565b9450611092565b828054611105906114a9565b90600052602060002090601f016020900481019282611127576000855561116d565b82601f1061114057805160ff191683800117855561116d565b8280016001018555821561116d579182015b8281111561116d578251825591602001919060010190611152565b5061117992915061117d565b5090565b5b80821115611179576000815560010161117e565b6001600160e01b0319811681146111a857600080fd5b50565b6000602082840312156111bd57600080fd5b8135610ef681611192565b60005b838110156111e35781810151838201526020016111cb565b838111156106db5750506000910152565b6000815180845261120c8160208601602086016111c8565b601f01601f19169290920160200192915050565b602081526000610ef660208301846111f4565b60006020828403121561124557600080fd5b5035919050565b80356001600160a01b038116811461126357600080fd5b919050565b6000806040838503121561127b57600080fd5b6112848361124c565b946020939093013593505050565b6000806000606084860312156112a757600080fd5b6112b08461124c565b92506112be6020850161124c565b9150604084013590509250925092565b634e487b7160e01b600052604160045260246000fd5b600067ffffffffffffffff808411156112ff576112ff6112ce565b604051601f8501601f19908116603f01168101908282118183101715611327576113276112ce565b8160405280935085815286868601111561134057600080fd5b858560208301376000602087830101525050509392505050565b60006020828403121561136c57600080fd5b813567ffffffffffffffff81111561138357600080fd5b8201601f8101841361139457600080fd5b610850848235602084016112e4565b6000602082840312156113b557600080fd5b610ef68261124c565b600080604083850312156113d157600080fd5b6113da8361124c565b9150602083013580151581146113ef57600080fd5b809150509250929050565b6000806000806080858703121561141057600080fd5b6114198561124c565b93506114276020860161124c565b925060408501359150606085013567ffffffffffffffff81111561144a57600080fd5b8501601f8101871361145b57600080fd5b61146a878235602084016112e4565b91505092959194509250565b6000806040838503121561148957600080fd5b6114928361124c565b91506114a06020840161124c565b90509250929050565b600181811c908216806114bd57607f821691505b602082108114156114de57634e487b7160e01b600052602260045260246000fd5b50919050565b60208082526031908201527f4552433732313a207472616e736665722063616c6c6572206973206e6f74206f6040820152701ddb995c881b9bdc88185c1c1c9bdd9959607a1b606082015260800190565b600083516115478184602088016111c8565b83519083019061155b8183602088016111c8565b01949350505050565b634e487b7160e01b600052601160045260246000fd5b60008282101561158c5761158c611564565b500390565b600082198211156115a4576115a4611564565b500190565b60208082526032908201527f4552433732313a207472616e7366657220746f206e6f6e20455243373231526560408201527131b2b4bb32b91034b6b83632b6b2b73a32b960711b606082015260800190565b6001600160a01b038581168252841660208201526040810183905260806060820181905260009061162e908301846111f4565b9695505050505050565b60006020828403121561164a57600080fd5b8151610ef681611192565b600060001982141561166957611669611564565b5060010190565b634e487b7160e01b600052601260045260246000fd5b60008261169557611695611670565b500490565b6000826116a9576116a9611670565b500690565b634e487b7160e01b600052603260045260246000fdfea264697066735822122080eec6e69ad39f9a4e25117fc8664c65a94b6d2fe62b6bb798e956f77911199464736f6c634300080a0033",
  "devdoc": {
    "kind": "dev",
    "methods": {
      "approve(address,uint256)": {
        "details": "See {IERC721-approve}."
      },
      "balanceOf(address)": {
        "details": "See {IERC721-balanceOf}."
      },
      "getApproved(uint256)": {
        "details": "See {IERC721-getApproved}."
      },
      "isApprovedForAll(address,address)": {
        "details": "See {IERC721-isApprovedForAll}."
      },
      "name()": {
        "details": "See {IERC721Metadata-name}."
      },
      "ownerOf(uint256)": {
        "details": "See {IERC721-ownerOf}."
      },
      "safeTransferFrom(address,address,uint256)": {
        "details": "See {IERC721-safeTransferFrom}."
      },
      "safeTransferFrom(address,address,uint256,bytes)": {
        "details": "See {IERC721-safeTransferFrom}."
      },
      "setApprovalForAll(address,bool)": {
        "details": "See {IERC721-setApprovalForAll}."
      },
      "supportsInterface(bytes4)": {
        "details": "See {IERC165-supportsInterface}."
      },
      "symbol()": {
        "details": "See {IERC721Metadata-symbol}."
      },
      "tokenURI(uint256)": {
        "details": "See {IERC721Metadata-tokenURI}."
      },
      "transferFrom(address,address,uint256)": {
        "details": "See {IERC721-transferFrom}."
      }
    },
    "version": 1
  },
  "userdoc": {
    "kind": "user",
    "methods": {},
    "version": 1
  },
  "storageLayout": {
    "storage": [
      {
        "astId": 143,
        "contract": "contracts/NFT.sol:NFT",
        "label": "_name",
        "offset": 0,
        "slot": "0",
        "type": "t_string_storage"
      },
      {
        "astId": 145,
        "contract": "contracts/NFT.sol:NFT",
        "label": "_symbol",
        "offset": 0,
        "slot": "1",
        "type": "t_string_storage"
      },
      {
        "astId": 149,
        "contract": "contracts/NFT.sol:NFT",
        "label": "_owners",
        "offset": 0,
        "slot": "2",
        "type": "t_mapping(t_uint256,t_address)"
      },
      {
        "astId": 153,
        "contract": "contracts/NFT.sol:NFT",
        "label": "_balances",
        "offset": 0,
        "slot": "3",
        "type": "t_mapping(t_address,t_uint256)"
      },
      {
        "astId": 157,
        "contract": "contracts/NFT.sol:NFT",
        "label": "_tokenApprovals",
        "offset": 0,
        "slot": "4",
        "type": "t_mapping(t_uint256,t_address)"
      },
      {
        "astId": 163,
        "contract": "contracts/NFT.sol:NFT",
        "label": "_operatorApprovals",
        "offset": 0,
        "slot": "5",
        "type": "t_mapping(t_address,t_mapping(t_address,t_bool))"
      },
      {
        "astId": 1468,
        "contract": "contracts/NFT.sol:NFT",
        "label": "_tokenURIs",
        "offset": 0,
        "slot": "6",
        "type": "t_mapping(t_uint256,t_string_storage)"
      },
      {
        "astId": 2286,
        "contract": "contracts/NFT.sol:NFT",
        "label": "nftTokenId",
        "offset": 0,
        "slot": "7",
        "type": "t_struct(Counter)1964_storage"
      },
      {
        "astId": 2288,
        "contract": "contracts/NFT.sol:NFT",
        "label": "contractAddress",
        "offset": 0,
        "slot": "8",
        "type": "t_address"
      }
    ],
    "types": {
      "t_address": {
        "encoding": "inplace",
        "label": "address",
        "numberOfBytes": "20"
      },
      "t_bool": {
        "encoding": "inplace",
        "label": "bool",
        "numberOfBytes": "1"
      },
      "t_mapping(t_address,t_bool)": {
        "encoding": "mapping",
        "key": "t_address",
        "label": "mapping(address => bool)",
        "numberOfBytes": "32",
        "value": "t_bool"
      },
      "t_mapping(t_address,t_mapping(t_address,t_bool))": {
        "encoding": "mapping",
        "key": "t_address",
        "label": "mapping(address => mapping(address => bool))",
        "numberOfBytes": "32",
        "value": "t_mapping(t_address,t_bool)"
      },
      "t_mapping(t_address,t_uint256)": {
        "encoding": "mapping",
        "key": "t_address",
        "label": "mapping(address => uint256)",
        "numberOfBytes": "32",
        "value": "t_uint256"
      },
      "t_mapping(t_uint256,t_address)": {
        "encoding": "mapping",
        "key": "t_uint256",
        "label": "mapping(uint256 => address)",
        "numberOfBytes": "32",
        "value": "t_address"
      },
      "t_mapping(t_uint256,t_string_storage)": {
        "encoding": "mapping",
        "key": "t_uint256",
        "label": "mapping(uint256 => string)",
        "numberOfBytes": "32",
        "value": "t_string_storage"
      },
      "t_string_storage": {
        "encoding": "bytes",
        "label": "string",
        "numberOfBytes": "32"
      },
      "t_struct(Counter)1964_storage": {
        "encoding": "inplace",
        "label": "struct Counters.Counter",
        "members": [
          {
            "astId": 1963,
            "contract": "contracts/NFT.sol:NFT",
            "label": "_value",
            "offset": 0,
            "slot": "0",
            "type": "t_uint256"
          }
        ],
        "numberOfBytes": "32"
      },
      "t_uint256": {
        "encoding": "inplace",
        "label": "uint256",
        "numberOfBytes": "32"
      }
    }
  }
}