{
  "address": "0xB8f3646c5582Bc37288cC65b20Ed36c3eDC9BBE0",
  "abi": [
    {
      "inputs": [
        {
          "internalType": "address",
          "name": "_paymentToken",
          "type": "address"
        }
      ],
      "stateMutability": "nonpayable",
      "type": "constructor"
    },
    {
      "anonymous": false,
      "inputs": [
        {
          "indexed": true,
          "internalType": "address",
          "name": "nftContract",
          "type": "address"
        },
        {
          "indexed": true,
          "internalType": "uint256",
          "name": "id",
          "type": "uint256"
        },
        {
          "indexed": false,
          "internalType": "uint256",
          "name": "tokenId",
          "type": "uint256"
        },
        {
          "indexed": false,
          "internalType": "address",
          "name": "owner",
          "type": "address"
        },
        {
          "indexed": false,
          "internalType": "address",
          "name": "seller",
          "type": "address"
        },
        {
          "indexed": false,
          "internalType": "uint256",
          "name": "price",
          "type": "uint256"
        },
        {
          "indexed": false,
          "internalType": "bool",
          "name": "sold",
          "type": "bool"
        },
        {
          "indexed": true,
          "internalType": "address",
          "name": "paymentTokenAddress",
          "type": "address"
        }
      ],
      "name": "NftMerketItemCreated",
      "type": "event"
    },
    {
      "inputs": [
        {
          "internalType": "address",
          "name": "nftContract",
          "type": "address"
        },
        {
          "internalType": "uint256",
          "name": "tokenId",
          "type": "uint256"
        },
        {
          "internalType": "uint256",
          "name": "price",
          "type": "uint256"
        }
      ],
      "name": "createItemForSaleWithEth",
      "outputs": [],
      "stateMutability": "payable",
      "type": "function"
    },
    {
      "inputs": [
        {
          "internalType": "address",
          "name": "nftContract",
          "type": "address"
        },
        {
          "internalType": "uint256",
          "name": "tokenId",
          "type": "uint256"
        },
        {
          "internalType": "uint256",
          "name": "price",
          "type": "uint256"
        }
      ],
      "name": "createItemForSaleWithToken",
      "outputs": [],
      "stateMutability": "payable",
      "type": "function"
    },
    {
      "inputs": [
        {
          "internalType": "address",
          "name": "nftContract",
          "type": "address"
        },
        {
          "internalType": "uint256",
          "name": "nftItemId",
          "type": "uint256"
        }
      ],
      "name": "createMarketForSaleWithEth",
      "outputs": [],
      "stateMutability": "payable",
      "type": "function"
    },
    {
      "inputs": [
        {
          "internalType": "address",
          "name": "nftContract",
          "type": "address"
        },
        {
          "internalType": "uint256",
          "name": "nftItemId",
          "type": "uint256"
        }
      ],
      "name": "createMarketForSaleWithToken",
      "outputs": [],
      "stateMutability": "nonpayable",
      "type": "function"
    },
    {
      "inputs": [],
      "name": "getAllUnsoldItems",
      "outputs": [
        {
          "components": [
            {
              "internalType": "address",
              "name": "nftContract",
              "type": "address"
            },
            {
              "internalType": "uint256",
              "name": "id",
              "type": "uint256"
            },
            {
              "internalType": "uint256",
              "name": "tokenId",
              "type": "uint256"
            },
            {
              "internalType": "address payable",
              "name": "owner",
              "type": "address"
            },
            {
              "internalType": "address payable",
              "name": "seller",
              "type": "address"
            },
            {
              "internalType": "uint256",
              "name": "price",
              "type": "uint256"
            },
            {
              "internalType": "bool",
              "name": "sold",
              "type": "bool"
            },
            {
              "internalType": "address",
              "name": "paymentTokenAddress",
              "type": "address"
            },
            {
              "internalType": "uint256",
              "name": "marketingFeeTokenAmount",
              "type": "uint256"
            }
          ],
          "internalType": "struct NFTMarketPlace.NftMerketItem[]",
          "name": "",
          "type": "tuple[]"
        }
      ],
      "stateMutability": "view",
      "type": "function"
    },
    {
      "inputs": [],
      "name": "getMyItemCreated",
      "outputs": [
        {
          "components": [
            {
              "internalType": "address",
              "name": "nftContract",
              "type": "address"
            },
            {
              "internalType": "uint256",
              "name": "id",
              "type": "uint256"
            },
            {
              "internalType": "uint256",
              "name": "tokenId",
              "type": "uint256"
            },
            {
              "internalType": "address payable",
              "name": "owner",
              "type": "address"
            },
            {
              "internalType": "address payable",
              "name": "seller",
              "type": "address"
            },
            {
              "internalType": "uint256",
              "name": "price",
              "type": "uint256"
            },
            {
              "internalType": "bool",
              "name": "sold",
              "type": "bool"
            },
            {
              "internalType": "address",
              "name": "paymentTokenAddress",
              "type": "address"
            },
            {
              "internalType": "uint256",
              "name": "marketingFeeTokenAmount",
              "type": "uint256"
            }
          ],
          "internalType": "struct NFTMarketPlace.NftMerketItem[]",
          "name": "",
          "type": "tuple[]"
        }
      ],
      "stateMutability": "view",
      "type": "function"
    },
    {
      "inputs": [],
      "name": "getMyNFTPurchased",
      "outputs": [
        {
          "components": [
            {
              "internalType": "address",
              "name": "nftContract",
              "type": "address"
            },
            {
              "internalType": "uint256",
              "name": "id",
              "type": "uint256"
            },
            {
              "internalType": "uint256",
              "name": "tokenId",
              "type": "uint256"
            },
            {
              "internalType": "address payable",
              "name": "owner",
              "type": "address"
            },
            {
              "internalType": "address payable",
              "name": "seller",
              "type": "address"
            },
            {
              "internalType": "uint256",
              "name": "price",
              "type": "uint256"
            },
            {
              "internalType": "bool",
              "name": "sold",
              "type": "bool"
            },
            {
              "internalType": "address",
              "name": "paymentTokenAddress",
              "type": "address"
            },
            {
              "internalType": "uint256",
              "name": "marketingFeeTokenAmount",
              "type": "uint256"
            }
          ],
          "internalType": "struct NFTMarketPlace.NftMerketItem[]",
          "name": "",
          "type": "tuple[]"
        }
      ],
      "stateMutability": "view",
      "type": "function"
    },
    {
      "inputs": [],
      "name": "gettheMarketFeesForEth",
      "outputs": [
        {
          "internalType": "uint256",
          "name": "",
          "type": "uint256"
        }
      ],
      "stateMutability": "view",
      "type": "function"
    },
    {
      "inputs": [],
      "name": "gettheMarketFeesForToken",
      "outputs": [
        {
          "internalType": "uint256",
          "name": "",
          "type": "uint256"
        }
      ],
      "stateMutability": "view",
      "type": "function"
    }
  ],
  "transactionHash": "0x4cda7b12523c0699e945811f990fe868f828d503a6e261ecc27bae3876c71a58",
  "args": [
    "0xF637860c509e804C640C13c720d4150D5b3AC457"
  ],
  "numDeployments": 4,
  "solcInputHash": "c163b21b45f789deea5028b90e9bb202",
  "bytecode": "0x6080604052662386f26fc100006001556509184e72a00060025534801561002557600080fd5b506040516118a23803806118a28339810160408190526100449161007c565b600160005560038054336001600160a01b031991821617909155600480549091166001600160a01b03929092169190911790556100ac565b60006020828403121561008e57600080fd5b81516001600160a01b03811681146100a557600080fd5b9392505050565b6117e7806100bb6000396000f3fe6080604052600436106100865760003560e01c8063446269e611610059578063446269e6146100f157806358d09f36146101065780635d8e90ea14610125578063614009bf1461013a5780639e31e6551461015a57600080fd5b8063094239541461008b57806325135cbf146100a0578063356c045d146100cb57806336db1b4a146100de575b600080fd5b61009e61009936600461157f565b61016f565b005b3480156100ac57600080fd5b506100b5610337565b6040516100c291906115a9565b60405180910390f35b61009e6100d9366004611655565b6104dc565b61009e6100ec366004611655565b6108ab565b3480156100fd57600080fd5b506100b5610e9d565b34801561011257600080fd5b506002545b6040519081526020016100c2565b34801561013157600080fd5b50600154610117565b34801561014657600080fd5b5061009e61015536600461157f565b611080565b34801561016657600080fd5b506100b5611334565b6002600054141561019b5760405162461bcd60e51b815260040161019290611688565b60405180910390fd5b6002600081815582815260076020526040902060058101549101543482146102055760405162461bcd60e51b815260206004820152601c60248201527f73686f756c642062757920746865207072696365206f66206974656d000000006044820152606401610192565b6000838152600760205260408082206004015490516001600160a01b03909116913480156108fc02929091818181858888f1935050505015801561024d573d6000803e3d6000fd5b506040516323b872dd60e01b81526001600160a01b038516906323b872dd9061027e903090339086906004016116bf565b600060405180830381600087803b15801561029857600080fd5b505af11580156102ac573d6000803e3d6000fd5b50505060008481526007602052604090206003810180546001600160a01b031916331790556006908101805460ff191660011790556102ef915080546001019055565b6003546001546040516001600160a01b039092169181156108fc0291906000818181858888f1935050505015801561032b573d6000803e3d6000fd5b50506001600055505050565b6060600061034460055490565b9050600061035160065490565b60055461035e91906116f9565b90506000808267ffffffffffffffff81111561037c5761037c611710565b6040519080825280602002602001820160405280156103b557816020015b6103a2611517565b81526020019060019003908161039a5790505b50905060005b848110156104d35760006007816103d3846001611726565b81526020810191909152604001600020600301546001600160a01b031614156104c1576000610403826001611726565b60008181526007602081815260409283902083516101208101855281546001600160a01b039081168252600183015493820193909352600282015494810194909452600381015482166060850152600481015482166080850152600581015460a0850152600681015460ff8116151560c08601526101009081900490921660e085015291820154908301528551929350918590879081106104a6576104a661173e565b60209081029190910101526104bc600186611726565b945050505b806104cb81611754565b9150506103bb565b50949350505050565b600260005414156104ff5760405162461bcd60e51b815260040161019290611688565b6002600055806105515760405162461bcd60e51b815260206004820152601a60248201527f50726963652073686f756c64206265206d6f72655468616e20310000000000006044820152606401610192565b600082116105a15760405162461bcd60e51b815260206004820152601d60248201527f746f6b656e2049642073686f756c64206265206d6f72655468616e20310000006044820152606401610192565b60015434146105f25760405162461bcd60e51b815260206004820152601e60248201527f546865204d61726b6574204665657320697320302e30313020457468657200006044820152606401610192565b6001600160a01b0383166106485760405162461bcd60e51b815260206004820152601f60248201527f616464726573732073686f756c64206e6f7420626520657175616c20307830006044820152606401610192565b610656600580546001019055565b600061066160055490565b9050604051806101200160405280856001600160a01b0316815260200182815260200184815260200160006001600160a01b03168152602001336001600160a01b0316815260200183815260200160001515815260200160006001600160a01b0316815260200160008152506007600083815260200190815260200160002060008201518160000160006101000a8154816001600160a01b0302191690836001600160a01b03160217905550602082015181600101556040820151816002015560608201518160030160006101000a8154816001600160a01b0302191690836001600160a01b0316021790555060808201518160040160006101000a8154816001600160a01b0302191690836001600160a01b0316021790555060a0820151816005015560c08201518160060160006101000a81548160ff02191690831515021790555060e08201518160060160016101000a8154816001600160a01b0302191690836001600160a01b031602179055506101008201518160070155905050836001600160a01b03166323b872dd3330866040518463ffffffff1660e01b8152600401610810939291906116bf565b600060405180830381600087803b15801561082a57600080fd5b505af115801561083e573d6000803e3d6000fd5b5050604080518681526000602082018190523382840152606082018790526080820181905291519193508492506001600160a01b038816917fddd70a5dfeb399368282e730ab6b89301c656d83cb00833aa2196edff81b9bcb9181900360a00190a4505060016000555050565b600260005414156108ce5760405162461bcd60e51b815260040161019290611688565b6002600055806109205760405162461bcd60e51b815260206004820152601a60248201527f50726963652073686f756c64206265206d6f72655468616e20310000000000006044820152606401610192565b600082116109705760405162461bcd60e51b815260206004820152601d60248201527f746f6b656e2049642073686f756c64206265206d6f72655468616e20310000006044820152606401610192565b60025460048054604051636eb1769f60e11b815233928101929092523060248301526001600160a01b03169063dd62ed3e90604401602060405180830381865afa1580156109c2573d6000803e3d6000fd5b505050506040513d601f19601f820116820180604052508101906109e6919061176f565b1015610a2b5760405162461bcd60e51b81526020600482015260146024820152734e6f7420656e6f75676820616c6c6f77616e636560601b6044820152606401610192565b6001600160a01b038316610a815760405162461bcd60e51b815260206004820152601f60248201527f616464726573732073686f756c64206e6f7420626520657175616c20307830006044820152606401610192565b610a8f600580546001019055565b6000610a9a60055490565b600480546040516370a0823160e01b815230928101929092529192506000916001600160a01b0316906370a0823190602401602060405180830381865afa158015610ae9573d6000803e3d6000fd5b505050506040513d601f19601f82011682018060405250810190610b0d919061176f565b6040516323b872dd60e01b81529091506001600160a01b038616906323b872dd90610b40903390309089906004016116bf565b600060405180830381600087803b158015610b5a57600080fd5b505af1158015610b6e573d6000803e3d6000fd5b5050600480546002546040516323b872dd60e01b81526001600160a01b0390921694506323b872dd9350610ba7923392309291016116bf565b6020604051808303816000875af1158015610bc6573d6000803e3d6000fd5b505050506040513d601f19601f82011682018060405250810190610bea9190611788565b50600480546040516370a0823160e01b8152309281019290925260009183916001600160a01b0316906370a0823190602401602060405180830381865afa158015610c39573d6000803e3d6000fd5b505050506040513d601f19601f82011682018060405250810190610c5d919061176f565b610c6791906116f9565b9050604051806101200160405280876001600160a01b0316815260200184815260200186815260200160006001600160a01b03168152602001336001600160a01b03168152602001858152602001600015158152602001600460009054906101000a90046001600160a01b03166001600160a01b03168152602001828152506007600085815260200190815260200160002060008201518160000160006101000a8154816001600160a01b0302191690836001600160a01b03160217905550602082015181600101556040820151816002015560608201518160030160006101000a8154816001600160a01b0302191690836001600160a01b0316021790555060808201518160040160006101000a8154816001600160a01b0302191690836001600160a01b0316021790555060a0820151816005015560c08201518160060160006101000a81548160ff02191690831515021790555060e08201518160060160016101000a8154816001600160a01b0302191690836001600160a01b031602179055506101008201518160070155905050600460009054906101000a90046001600160a01b03166001600160a01b031683876001600160a01b03167fddd70a5dfeb399368282e730ab6b89301c656d83cb00833aa2196edff81b9bcb886000338a6000604051610e889594939291909485526001600160a01b03938416602086015291909216604084015260608301919091521515608082015260a00190565b60405180910390a45050600160005550505050565b60606000610eaa60055490565b905060008060005b83811015610f0d573360076000610eca846001611726565b81526020810191909152604001600020600301546001600160a01b03161415610efb57610ef8600184611726565b92505b80610f0581611754565b915050610eb2565b5060008267ffffffffffffffff811115610f2957610f29611710565b604051908082528060200260200182016040528015610f6257816020015b610f4f611517565b815260200190600190039081610f475790505b50905060005b848110156104d3573360076000610f80846001611726565b81526020810191909152604001600020600301546001600160a01b0316141561106e576000610fb0826001611726565b60008181526007602081815260409283902083516101208101855281546001600160a01b039081168252600183015493820193909352600282015494810194909452600381015482166060850152600481015482166080850152600581015460a0850152600681015460ff8116151560c08601526101009081900490921660e085015291820154908301528551929350918590879081106110535761105361173e565b6020908102919091010152611069600186611726565b945050505b8061107881611754565b915050610f68565b600260005414156110a35760405162461bcd60e51b815260040161019290611688565b6002600081815582815260076020526040908190206005810154920154600480549251636eb1769f60e11b81523391810191909152306024820152909183916001600160a01b039091169063dd62ed3e90604401602060405180830381865afa158015611114573d6000803e3d6000fd5b505050506040513d601f19601f82011682018060405250810190611138919061176f565b101561117d5760405162461bcd60e51b81526020600482015260146024820152734e6f7420656e6f75676820616c6c6f77616e636560601b6044820152606401610192565b600480546000858152600760205260409081902083015490516323b872dd60e01b81526001600160a01b03928316936323b872dd936111c39333939116918891016116bf565b6020604051808303816000875af11580156111e2573d6000803e3d6000fd5b505050506040513d601f19601f820116820180604052508101906112069190611788565b506040516323b872dd60e01b81526001600160a01b038516906323b872dd90611237903090339086906004016116bf565b600060405180830381600087803b15801561125157600080fd5b505af1158015611265573d6000803e3d6000fd5b50505060008481526007602052604090206003810180546001600160a01b031916331790556006908101805460ff191660011790556112a8915080546001019055565b600480546003546000868152600760208190526040918290200154905163a9059cbb60e01b81526001600160a01b03928316948101949094526024840152169063a9059cbb906044016020604051808303816000875af1158015611310573d6000803e3d6000fd5b505050506040513d601f19601f8201168201806040525081019061032b9190611788565b6060600061134160055490565b905060008060005b838110156113a4573360076000611361846001611726565b81526020810191909152604001600020600401546001600160a01b031614156113925761138f600184611726565b92505b8061139c81611754565b915050611349565b5060008267ffffffffffffffff8111156113c0576113c0611710565b6040519080825280602002602001820160405280156113f957816020015b6113e6611517565b8152602001906001900390816113de5790505b50905060005b848110156104d3573360076000611417846001611726565b81526020810191909152604001600020600401546001600160a01b03161415611505576000611447826001611726565b60008181526007602081815260409283902083516101208101855281546001600160a01b039081168252600183015493820193909352600282015494810194909452600381015482166060850152600481015482166080850152600581015460a0850152600681015460ff8116151560c08601526101009081900490921660e085015291820154908301528551929350918590879081106114ea576114ea61173e565b6020908102919091010152611500600186611726565b945050505b8061150f81611754565b9150506113ff565b6040805161012081018252600080825260208201819052918101829052606081018290526080810182905260a0810182905260c0810182905260e0810182905261010081019190915290565b80356001600160a01b038116811461157a57600080fd5b919050565b6000806040838503121561159257600080fd5b61159b83611563565b946020939093013593505050565b602080825282518282018190526000919060409081850190868401855b8281101561164857815180516001600160a01b0390811686528782015188870152868201518787015260608083015182169087015260808083015182169087015260a0808301519087015260c08083015115159087015260e08083015190911690860152610100908101519085015261012090930192908501906001016115c6565b5091979650505050505050565b60008060006060848603121561166a57600080fd5b61167384611563565b95602085013595506040909401359392505050565b6020808252601f908201527f5265656e7472616e637947756172643a207265656e7472616e742063616c6c00604082015260600190565b6001600160a01b039384168152919092166020820152604081019190915260600190565b634e487b7160e01b600052601160045260246000fd5b60008282101561170b5761170b6116e3565b500390565b634e487b7160e01b600052604160045260246000fd5b60008219821115611739576117396116e3565b500190565b634e487b7160e01b600052603260045260246000fd5b6000600019821415611768576117686116e3565b5060010190565b60006020828403121561178157600080fd5b5051919050565b60006020828403121561179a57600080fd5b815180151581146117aa57600080fd5b939250505056fea2646970667358221220d7697f27b3d52612166ab7494816c2d061e0b5e246e929a89b6c2f286194f0c264736f6c634300080a0033",
  "devdoc": {
    "kind": "dev",
    "methods": {},
    "version": 1
  },
  "userdoc": {
    "kind": "user",
    "methods": {},
    "version": 1
  },
  "storageLayout": {
    "storage": [
      {
        "astId": 10,
        "contract": "contracts/NFTMarketPlace.sol:NFTMarketPlace",
        "label": "_status",
        "offset": 0,
        "slot": "0",
        "type": "t_uint256"
      },
      {
        "astId": 2360,
        "contract": "contracts/NFTMarketPlace.sol:NFTMarketPlace",
        "label": "marketFeesForEth",
        "offset": 0,
        "slot": "1",
        "type": "t_uint256"
      },
      {
        "astId": 2367,
        "contract": "contracts/NFTMarketPlace.sol:NFTMarketPlace",
        "label": "marketFeesForToken",
        "offset": 0,
        "slot": "2",
        "type": "t_uint256"
      },
      {
        "astId": 2369,
        "contract": "contracts/NFTMarketPlace.sol:NFTMarketPlace",
        "label": "owner",
        "offset": 0,
        "slot": "3",
        "type": "t_address_payable"
      },
      {
        "astId": 2371,
        "contract": "contracts/NFTMarketPlace.sol:NFTMarketPlace",
        "label": "paymentTokenAddress",
        "offset": 0,
        "slot": "4",
        "type": "t_address"
      },
      {
        "astId": 2378,
        "contract": "contracts/NFTMarketPlace.sol:NFTMarketPlace",
        "label": "itemId",
        "offset": 0,
        "slot": "5",
        "type": "t_struct(Counter)1964_storage"
      },
      {
        "astId": 2381,
        "contract": "contracts/NFTMarketPlace.sol:NFTMarketPlace",
        "label": "itemsSold",
        "offset": 0,
        "slot": "6",
        "type": "t_struct(Counter)1964_storage"
      },
      {
        "astId": 2457,
        "contract": "contracts/NFTMarketPlace.sol:NFTMarketPlace",
        "label": "idForMarketItem",
        "offset": 0,
        "slot": "7",
        "type": "t_mapping(t_uint256,t_struct(NftMerketItem)2418_storage)"
      }
    ],
    "types": {
      "t_address": {
        "encoding": "inplace",
        "label": "address",
        "numberOfBytes": "20"
      },
      "t_address_payable": {
        "encoding": "inplace",
        "label": "address payable",
        "numberOfBytes": "20"
      },
      "t_bool": {
        "encoding": "inplace",
        "label": "bool",
        "numberOfBytes": "1"
      },
      "t_mapping(t_uint256,t_struct(NftMerketItem)2418_storage)": {
        "encoding": "mapping",
        "key": "t_uint256",
        "label": "mapping(uint256 => struct NFTMarketPlace.NftMerketItem)",
        "numberOfBytes": "32",
        "value": "t_struct(NftMerketItem)2418_storage"
      },
      "t_struct(Counter)1964_storage": {
        "encoding": "inplace",
        "label": "struct Counters.Counter",
        "members": [
          {
            "astId": 1963,
            "contract": "contracts/NFTMarketPlace.sol:NFTMarketPlace",
            "label": "_value",
            "offset": 0,
            "slot": "0",
            "type": "t_uint256"
          }
        ],
        "numberOfBytes": "32"
      },
      "t_struct(NftMerketItem)2418_storage": {
        "encoding": "inplace",
        "label": "struct NFTMarketPlace.NftMerketItem",
        "members": [
          {
            "astId": 2401,
            "contract": "contracts/NFTMarketPlace.sol:NFTMarketPlace",
            "label": "nftContract",
            "offset": 0,
            "slot": "0",
            "type": "t_address"
          },
          {
            "astId": 2403,
            "contract": "contracts/NFTMarketPlace.sol:NFTMarketPlace",
            "label": "id",
            "offset": 0,
            "slot": "1",
            "type": "t_uint256"
          },
          {
            "astId": 2405,
            "contract": "contracts/NFTMarketPlace.sol:NFTMarketPlace",
            "label": "tokenId",
            "offset": 0,
            "slot": "2",
            "type": "t_uint256"
          },
          {
            "astId": 2407,
            "contract": "contracts/NFTMarketPlace.sol:NFTMarketPlace",
            "label": "owner",
            "offset": 0,
            "slot": "3",
            "type": "t_address_payable"
          },
          {
            "astId": 2409,
            "contract": "contracts/NFTMarketPlace.sol:NFTMarketPlace",
            "label": "seller",
            "offset": 0,
            "slot": "4",
            "type": "t_address_payable"
          },
          {
            "astId": 2411,
            "contract": "contracts/NFTMarketPlace.sol:NFTMarketPlace",
            "label": "price",
            "offset": 0,
            "slot": "5",
            "type": "t_uint256"
          },
          {
            "astId": 2413,
            "contract": "contracts/NFTMarketPlace.sol:NFTMarketPlace",
            "label": "sold",
            "offset": 0,
            "slot": "6",
            "type": "t_bool"
          },
          {
            "astId": 2415,
            "contract": "contracts/NFTMarketPlace.sol:NFTMarketPlace",
            "label": "paymentTokenAddress",
            "offset": 1,
            "slot": "6",
            "type": "t_address"
          },
          {
            "astId": 2417,
            "contract": "contracts/NFTMarketPlace.sol:NFTMarketPlace",
            "label": "marketingFeeTokenAmount",
            "offset": 0,
            "slot": "7",
            "type": "t_uint256"
          }
        ],
        "numberOfBytes": "256"
      },
      "t_uint256": {
        "encoding": "inplace",
        "label": "uint256",
        "numberOfBytes": "32"
      }
    }
  }
}